{
  "contractName": "Exchange",
  "abi": [
    {
      "constant": true,
      "inputs": [
        {
          "name": "_id",
          "type": "bytes32"
        }
      ],
      "name": "getRecord",
      "outputs": [
        {
          "name": "useraddress",
          "type": "address"
        },
        {
          "name": "size",
          "type": "uint256"
        },
        {
          "name": "side",
          "type": "uint256"
        },
        {
          "name": "token",
          "type": "address"
        },
        {
          "name": "state",
          "type": "uint256"
        }
      ],
      "payable": false,
      "stateMutability": "view",
      "type": "function"
    },
    {
      "constant": false,
      "inputs": [
        {
          "name": "_wallet",
          "type": "address"
        }
      ],
      "name": "setCompanyWallet",
      "outputs": [],
      "payable": false,
      "stateMutability": "nonpayable",
      "type": "function"
    },
    {
      "constant": false,
      "inputs": [
        {
          "name": "_id",
          "type": "bytes32"
        },
        {
          "name": "_useraddress",
          "type": "address"
        },
        {
          "name": "_size",
          "type": "uint256"
        },
        {
          "name": "_tokenAddress",
          "type": "address"
        }
      ],
      "name": "deposit",
      "outputs": [],
      "payable": true,
      "stateMutability": "payable",
      "type": "function"
    },
    {
      "constant": false,
      "inputs": [
        {
          "name": "_id",
          "type": "bytes32"
        }
      ],
      "name": "withdraw",
      "outputs": [],
      "payable": true,
      "stateMutability": "payable",
      "type": "function"
    },
    {
      "constant": true,
      "inputs": [
        {
          "name": "_useraddress",
          "type": "address"
        }
      ],
      "name": "getWithdrawList",
      "outputs": [
        {
          "name": "",
          "type": "bytes32[]"
        }
      ],
      "payable": false,
      "stateMutability": "view",
      "type": "function"
    },
    {
      "constant": true,
      "inputs": [
        {
          "name": "_useraddress",
          "type": "address"
        }
      ],
      "name": "getDepositList",
      "outputs": [
        {
          "name": "",
          "type": "bytes32[]"
        }
      ],
      "payable": false,
      "stateMutability": "view",
      "type": "function"
    },
    {
      "constant": false,
      "inputs": [
        {
          "name": "_id",
          "type": "bytes32"
        },
        {
          "name": "_useraddress",
          "type": "address"
        },
        {
          "name": "_size",
          "type": "uint256"
        },
        {
          "name": "_tokenAddress",
          "type": "address"
        }
      ],
      "name": "approveWithdraw",
      "outputs": [],
      "payable": false,
      "stateMutability": "nonpayable",
      "type": "function"
    },
    {
      "constant": false,
      "inputs": [
        {
          "name": "_size",
          "type": "uint256"
        }
      ],
      "name": "getTransactionFee",
      "outputs": [],
      "payable": true,
      "stateMutability": "payable",
      "type": "function"
    },
    {
      "inputs": [],
      "payable": false,
      "stateMutability": "nonpayable",
      "type": "constructor"
    }
  ],
  "bytecode": "0x6060604052341561000f57600080fd5b60018054600160a060020a03191633600160a060020a0316179055610872806100396000396000f3006060604052600436106100745763ffffffff60e060020a600035041663213681cd811461007957806328831187146100ca5780635c8e09fd146100eb5780638e19899e1461010c578063b3011d7a14610117578063d2e4910c14610189578063d8a285bf146101a8578063dfc7d488146101d4575b600080fd5b341561008457600080fd5b61008f6004356101df565b604051600160a060020a039586168152602081019490945260408085019390935293166060830152608082019290925260a001905180910390f35b34156100d557600080fd5b6100e9600160a060020a036004351661021c565b005b6100e9600435600160a060020a036024358116906044359060643516610266565b6100e96004356103f5565b341561012257600080fd5b610136600160a060020a0360043516610592565b60405160208082528190810183818151815260200191508051906020019060200280838360005b8381101561017557808201518382015260200161015d565b505050509050019250505060405180910390f35b341561019457600080fd5b610136600160a060020a0360043516610616565b34156101b357600080fd5b6100e9600435600160a060020a036024358116906044359060643516610698565b6100e960043561079e565b600090815260026020819052604090912080546001820154928201546003830154600490930154600160a060020a03928316959193929092169190565b60015433600160a060020a0390811691161461023757600080fd5b6000805473ffffffffffffffffffffffffffffffffffffffff1916600160a060020a0392909216919091179055565b60008054600160a060020a03808416926323b872dd928792169086906040516020015260405160e060020a63ffffffff8616028152600160a060020a0393841660048201529190921660248201526044810191909152606401602060405180830381600087803b15156102d857600080fd5b6102c65a03f115156102e957600080fd5b50505060405180519050156103ef5760a06040519081016040908152600160a060020a0380861683526020808401869052600083850181905291851660608501526080840182905287825260029052208151815473ffffffffffffffffffffffffffffffffffffffff1916600160a060020a03919091161781556020820151816001015560408201518160020155606082015160038201805473ffffffffffffffffffffffffffffffffffffffff1916600160a060020a0392909216919091179055608082015160049091015550600160a060020a03831660009081526003602052604090208054600181016103df83826107ef565b5060009182526020909120018490555b50505050565b600081815260026020526040902054819033600160a060020a0390811691161480156104305750600081815260026020526040902060040154155b151561043b57600080fd5b600082815260026020526040808220600181015460039091015485939192600160a060020a03909116916370a0823191309190516020015260405160e060020a63ffffffff8416028152600160a060020a039091166004820152602401602060405180830381600087803b15156104b157600080fd5b6102c65a03f115156104c257600080fd5b50505060405180519050101515156104d957600080fd5b60008381526002602052604080822060038101548154600190920154600160a060020a039182169463a9059cbb9492909316929091516020015260405160e060020a63ffffffff8516028152600160a060020a0390921660048301526024820152604401602060405180830381600087803b151561055657600080fd5b6102c65a03f1151561056757600080fd5b505050604051805190501561058d57600083815260026020526040902060016004909101555b505050565b61059a610813565b6004600083600160a060020a0316600160a060020a0316815260200190815260200160002080548060200260200160405190810160405280929190818152602001828054801561060a57602002820191906000526020600020905b815481526001909101906020018083116105f5575b50505050509050919050565b61061e610813565b6003600083600160a060020a0316600160a060020a0316815260200190815260200160002080548060200260200160405190810160405280929190818152602001828054801561060a5760200282019190600052602060002090815481526001909101906020018083116105f55750505050509050919050565b60005433600160a060020a039081169116146106b357600080fd5b60a06040519081016040908152600160a060020a038086168352602080840186905260018385015290841660608401526000608084018190528781526002909152208151815473ffffffffffffffffffffffffffffffffffffffff1916600160a060020a03919091161781556020820151816001015560408201518160020155606082015160038201805473ffffffffffffffffffffffffffffffffffffffff1916600160a060020a03929092169190911790556080820151600491820155600160a060020a0385166000908152602091909152604090208054909150600181016103df83826107ef565b60015433600160a060020a039081169116146107b957600080fd5b600154600160a060020a031681156108fc0282604051600060405180830381858888f1935050505015156107ec57600080fd5b50565b81548183558181151161058d5760008381526020902061058d918101908301610825565b60206040519081016040526000815290565b61084391905b8082111561083f576000815560010161082b565b5090565b905600a165627a7a723058200c4288b3cb3e03ed80b6048d1460ced5bf49db502af4f8c10cb83b86a7ae7b7f0029",
  "source": "pragma solidity ^0.4.18;\n\ncontract Token {\n  event Transfer(address indexed from, address indexed to, uint tokens);\n  event Approval(address indexed tokenOwner, address indexed spender, uint tokens);\n  function totalSupply() public constant returns (uint);\n  function balanceOf(address tokenOwner) public constant returns (uint balance);\n  function allowance(address tokenOwner, address spender) public constant returns (uint remaining);\n  function transfer(address to, uint tokens) public returns (bool success);\n  function approve(address spender, uint tokens) public returns (bool success);\n  function transferFrom(address from, address to, uint tokens) public returns (bool success);\n}\n\n\n\ncontract Exchange{\n    \n    address company_wallet;\n    address owner;\n    \n   function Exchange()\n   public{\n        owner = msg.sender;\n   }\n    \n    struct Record {\n        address useraddress;\n        uint  size;// price\n        uint  side;// 0 deposit  1 withdraw\n        address token;\n        uint state;\n    }\n  \n   mapping ( bytes32 => Record ) private record;   //find account infomation through id\n   mapping ( address => bytes32[] ) private depositList;//find depositList by user address\n   mapping ( address => bytes32[] ) private withdrawList;//find withdrawList by user address\n   \n   modifier onlyCompanyWallet{\n    require(msg.sender == company_wallet);\n    _;\n  }\n  \n  modifier onlyOwner{\n    require(msg.sender == owner);\n    _;\n  }\n  \n  modifier checkBalance(bytes32 _id ){\n    require( Token( record[_id].token ).balanceOf(this) >= record[_id].size );\n    _;\n  }\n  \n  modifier checkUser( bytes32 _id ) {\n    require ( msg.sender == record[_id].useraddress && record[_id].state == 0 );\n    _;\n  }\n  \n  function setCompanyWallet( address _wallet)\n  public\n  onlyOwner\n  {\n      company_wallet = _wallet;\n  }\n  \n  // \"0xccea2b92988be9170101408bd2cb10024f6ef28a9bcb22ed9a677c9ccb46cf82\",\"0xca35b7d915458ef540ade6068dfe2f44e8fa733c\",88,\"0x692a70d2e424a56d2c6c27aa97d1a86395877b3a\"\n  function deposit(bytes32 _id, address _useraddress,uint _size,address _tokenAddress)\n  public\n  payable\n  {\n        //remember to call Token(address).approve(this, amount) or this contract will not be able to do the transfer on your behalf.\n        if(Token(_tokenAddress).transferFrom(_useraddress,company_wallet,_size))//transfer token to contract address\n        {\n                record[_id] = Record(\n                {\n                    useraddress : _useraddress,\n                    size        : _size,\n                    side        : 0,\n                    token       : _tokenAddress,\n                    state       : 0\n                });\n                \n                depositList[_useraddress].push(_id);\n        }\n  }\n  \n  \n  function getTransactionFee(uint _size)\n  public\n  payable\n  onlyOwner\n  {\n      owner.transfer(_size);\n  }\n  \n  function withdraw(bytes32 _id)\n  public\n  payable\n  checkUser( _id )\n  checkBalance( _id )\n  {\n        if(Token( record[_id].token ).transfer( record[_id].useraddress,record[_id].size ))//transfer token to contract address\n        {\n                record[_id].state = 1;\n        }\n  }\n  \n  // \"0xccea2b92988be9170101408bd2cb10024f6ef28a9bcb22ed9a677c9ccb46cf56\",\"0xca35b7d915458ef540ade6068dfe2f44e8fa733c\",88,\"0x692a70d2e424a56d2c6c27aa97d1a86395877b3a\"\n  function approveWithdraw(bytes32 _id,address _useraddress,uint _size,address _tokenAddress)\n  public\n  onlyCompanyWallet\n  {\n        record[_id] = Record(\n                {\n                    useraddress : _useraddress,\n                    size        : _size,\n                    side        : 1,\n                    token       : _tokenAddress,\n                    state       :0\n                });\n                \n        withdrawList[_useraddress].push(_id);\n      \n  }\n  \n  function getDepositList(address _useraddress)\n  view\n  public\n  returns ( bytes32[] )\n  {\n      return depositList[_useraddress];\n  }\n  \n  function getWithdrawList(address _useraddress)\n  view\n  public\n  returns ( bytes32[] )\n  {\n      return withdrawList[_useraddress];\n  }\n  \n    function getRecord(bytes32 _id)\n    view\n    public\n    returns (\n                 address useraddress, uint size , uint side , address token,uint state  \n            ) \n    {\n        return (\n                    record[_id].useraddress,\n                    record[_id].size,\n                    record[_id].side,\n                    record[_id].token,\n                    record[_id].state\n              );\n    }\n}\n\n",
  "sourcePath": "/Applications/eric/mvp/contracts/SafeAccount.sol",
  "compiler": {
    "name": "solc",
    "version": "0.4.19+commit.c4cbbb05.Emscripten.clang"
  },
  "schemaVersion": "2.0.0",
  "updatedAt": "2018-07-10T12:04:22.806Z"
}