{
  "contractName": "HouseInfoListing",
  "abi": [
    {
      "constant": true,
      "inputs": [],
      "name": "preOrderaddressfortest",
      "outputs": [
        {
          "name": "",
          "type": "uint256"
        }
      ],
      "payable": false,
      "stateMutability": "view",
      "type": "function"
    },
    {
      "constant": true,
      "inputs": [],
      "name": "tokenAddress",
      "outputs": [
        {
          "name": "",
          "type": "address"
        }
      ],
      "payable": false,
      "stateMutability": "view",
      "type": "function"
    },
    {
      "inputs": [
        {
          "name": "_tokenAddress",
          "type": "address"
        }
      ],
      "payable": true,
      "stateMutability": "payable",
      "type": "constructor"
    },
    {
      "anonymous": false,
      "inputs": [
        {
          "indexed": false,
          "name": "preOrder",
          "type": "address"
        }
      ],
      "name": "orderid",
      "type": "event"
    },
    {
      "constant": false,
      "inputs": [
        {
          "name": "_districtcode",
          "type": "bytes32"
        }
      ],
      "name": "setDistrictCode",
      "outputs": [
        {
          "name": "success",
          "type": "bool"
        }
      ],
      "payable": false,
      "stateMutability": "nonpayable",
      "type": "function"
    },
    {
      "constant": true,
      "inputs": [],
      "name": "getDistrictCode",
      "outputs": [
        {
          "name": "_districtcode",
          "type": "bytes32[]"
        }
      ],
      "payable": false,
      "stateMutability": "view",
      "type": "function"
    },
    {
      "constant": false,
      "inputs": [
        {
          "name": "_guestaddress",
          "type": "address"
        },
        {
          "name": "_hostaddress",
          "type": "address"
        },
        {
          "name": "_houseinfo",
          "type": "bytes32"
        },
        {
          "name": "_from",
          "type": "uint256"
        },
        {
          "name": "_to",
          "type": "uint256"
        },
        {
          "name": "_days",
          "type": "uint256"
        }
      ],
      "name": "preOrder",
      "outputs": [
        {
          "name": "_contractaddress",
          "type": "address"
        }
      ],
      "payable": true,
      "stateMutability": "payable",
      "type": "function"
    },
    {
      "constant": false,
      "inputs": [
        {
          "name": "_guestaddress",
          "type": "address"
        },
        {
          "name": "_hostaddress",
          "type": "address"
        },
        {
          "name": "_houseinfo",
          "type": "bytes32"
        },
        {
          "name": "_from",
          "type": "uint256"
        },
        {
          "name": "_to",
          "type": "uint256"
        },
        {
          "name": "_days",
          "type": "uint256"
        }
      ],
      "name": "preOrderByEth",
      "outputs": [
        {
          "name": "_preorder",
          "type": "address"
        }
      ],
      "payable": true,
      "stateMutability": "payable",
      "type": "function"
    },
    {
      "constant": false,
      "inputs": [
        {
          "name": "_uuid",
          "type": "bytes32"
        },
        {
          "name": "_price",
          "type": "uint256"
        },
        {
          "name": "_ethPrice",
          "type": "uint256"
        },
        {
          "name": "_roominfo",
          "type": "string"
        },
        {
          "name": "_districtcode",
          "type": "bytes32"
        }
      ],
      "name": "setHouseInfo",
      "outputs": [
        {
          "name": "success",
          "type": "bool"
        }
      ],
      "payable": false,
      "stateMutability": "nonpayable",
      "type": "function"
    },
    {
      "constant": true,
      "inputs": [
        {
          "name": "_hostaddress",
          "type": "address"
        }
      ],
      "name": "getHostRoomLists",
      "outputs": [
        {
          "name": "_hostRoomList",
          "type": "bytes32[]"
        }
      ],
      "payable": false,
      "stateMutability": "view",
      "type": "function"
    },
    {
      "constant": true,
      "inputs": [
        {
          "name": "_guestaddress",
          "type": "address"
        }
      ],
      "name": "getGuestOrders",
      "outputs": [
        {
          "name": "_guestOrders",
          "type": "address[]"
        }
      ],
      "payable": false,
      "stateMutability": "view",
      "type": "function"
    },
    {
      "constant": true,
      "inputs": [
        {
          "name": "_hostaddress",
          "type": "address"
        }
      ],
      "name": "getHostOrders",
      "outputs": [
        {
          "name": "_hostOrders",
          "type": "address[]"
        }
      ],
      "payable": false,
      "stateMutability": "view",
      "type": "function"
    },
    {
      "constant": true,
      "inputs": [
        {
          "name": "_houseinfo",
          "type": "bytes32"
        }
      ],
      "name": "getPreorders",
      "outputs": [
        {
          "name": "_preorders",
          "type": "address[]"
        }
      ],
      "payable": false,
      "stateMutability": "view",
      "type": "function"
    },
    {
      "constant": true,
      "inputs": [
        {
          "name": "_districtcode",
          "type": "bytes32"
        }
      ],
      "name": "getUUIDS",
      "outputs": [
        {
          "name": "_uuid",
          "type": "bytes32[]"
        }
      ],
      "payable": false,
      "stateMutability": "view",
      "type": "function"
    },
    {
      "constant": true,
      "inputs": [
        {
          "name": "_uuid",
          "type": "bytes32"
        }
      ],
      "name": "getHouseInfo",
      "outputs": [
        {
          "name": "_price",
          "type": "uint256"
        },
        {
          "name": "_ethPrice",
          "type": "uint256"
        },
        {
          "name": "_contractdatetime",
          "type": "uint256"
        },
        {
          "name": "_owner",
          "type": "address"
        },
        {
          "name": "_state",
          "type": "uint256"
        },
        {
          "name": "_roominfo",
          "type": "string"
        }
      ],
      "payable": false,
      "stateMutability": "view",
      "type": "function"
    }
  ],
  "bytecode": "0x60606040526040516020806114368339810160405280805160008054600160a060020a03928316600160a060020a03199182161790915560028054339093169290911691909117905550506113dd806100596000396000f3006060604052600436106100c45763ffffffff7c01000000000000000000000000000000000000000000000000000000006000350416630a95f08281146100c95780630d1efd7d146100ee578063182542c4146101545780632134214b1461017357806376235b49146101895780638c943b6c1461019f5780639d76ea58146101c9578063b4766216146101f8578063c92a7ac21461021e578063c9dda46614610244578063d042f3e014610263578063e495f08e146102c4578063f084e68414610387575b600080fd5b34156100d457600080fd5b6100dc6103a6565b60405190815260200160405180910390f35b34156100f957600080fd5b6101016103ac565b60405160208082528190810183818151815260200191508051906020019060200280838360005b83811015610140578082015183820152602001610128565b505050509050019250505060405180910390f35b341561015f57600080fd5b610101600160a060020a036004351661040c565b341561017e57600080fd5b61010160043561049a565b341561019457600080fd5b610101600435610512565b34156101aa57600080fd5b6101b5600435610582565b604051901515815260200160405180910390f35b34156101d457600080fd5b6101dc6105ca565b604051600160a060020a03909116815260200160405180910390f35b6101dc600160a060020a036004358116906024351660443560643560843560a4356105d9565b6101dc600160a060020a036004358116906024351660443560643560843560a435610805565b341561024f57600080fd5b610101600160a060020a0360043516610a75565b341561026e57600080fd5b6101b5600480359060248035916044359160849060643590810190830135806020601f820181900481020160405190810160405281815292919060208401838380828437509496505093359350610b0092505050565b34156102cf57600080fd5b6102da600435610c1c565b6040518087815260200186815260200185815260200184600160a060020a0316600160a060020a0316815260200183815260200180602001828103825283818151815260200191508051906020019080838360005b8381101561034757808201518382015260200161032f565b50505050905090810190601f1680156103745780820380516001836020036101000a031916815260200191505b5097505050505050505060405180910390f35b341561039257600080fd5b610101600160a060020a0360043516610d1e565b60035481565b6103b4610da0565b600180548060200260200160405190810160405280929190818152602001828054801561040157602002820191906000526020600020905b815481526001909101906020018083116103ec575b505050505090505b90565b610414610da0565b6008600083600160a060020a0316600160a060020a0316815260200190815260200160002080548060200260200160405190810160405280929190818152602001828054801561048d57602002820191906000526020600020905b8154600160a060020a0316815260019091019060200180831161046f575b505050505090505b919050565b6104a2610da0565b60008281526007602090815260409182902080549092909182810201905190810160405280929190818152602001828054801561048d57602002820191906000526020600020908154600160a060020a0316815260019091019060200180831161046f5750505050509050919050565b61051a610da0565b60008281526006602090815260409182902080549092909182810201905190810160405280929190818152602001828054801561048d57602002820191906000526020600020905b815481526001909101906020018083116105625750505050509050919050565b60025460009033600160a060020a039081169116146105a357506000610495565b600180548082016105b48382610db2565b5060009182526020909120019190915550600190565b600054600160a060020a031681565b60008481526005602081905260408220015481908190879085908102633b9aca000234101561060757600080fd5b60008981526005602081905260408220015481549088029550600160a060020a0316908b908d908c908c908c908c90808c610640610ddb565b600160a060020a039a8b168152988a1660208a0152969098166040808901919091526060880195909552608087019390935260a086019190915260c085015260e0840152610100830193909352610120820152610140019051809103906000f08015156106ac57600080fd5b346003819055909350600160a060020a0384169080156108fc0290604051600060405180830381858888f19350505050156107f75760008981526007602052604090208054600181016106ff8382610db2565b5060009182526020808320919091018054600160a060020a031916600160a060020a03878116919091179091558d16825260089052604090208054600181016107488382610db2565b5060009182526020808320919091018054600160a060020a031916600160a060020a03878116919091179091558c16825260099052604090208054600181016107918382610db2565b5060009182526020909120018054600160a060020a031916600160a060020a0385161790557f807fa4b25e2f2101c0a6e0d2e24e7fd473b92b93ddb872162608b3ed8089d28883604051600160a060020a03909116815260200160405180910390a18294505b505050509695505050505050565b6000848152600560205260408120600101548154908302908290600160a060020a0316888a89898989878981610839610ddb565b600160a060020a039a8b168152988a1660208a0152969098166040808901919091526060880195909552608087019390935260a086019190915260c085015260e0840152610100830193909352610120820152610140019051809103906000f08015156108a557600080fd5b60008054919250600160a060020a03909116906323b872dd908b9084908690604051602001526040517c010000000000000000000000000000000000000000000000000000000063ffffffff8616028152600160a060020a0393841660048201529190921660248201526044810191909152606401602060405180830381600087803b151561093357600080fd5b6102c65a03f1151561094457600080fd5b5050506040518051905015610a695760008781526007602052604090208054600181016109718382610db2565b5060009182526020808320919091018054600160a060020a031916600160a060020a03858116919091179091558b16825260089052604090208054600181016109ba8382610db2565b5060009182526020808320919091018054600160a060020a031916600160a060020a03858116919091179091558a1682526009905260409020805460018101610a038382610db2565b5060009182526020909120018054600160a060020a031916600160a060020a0383161790557f807fa4b25e2f2101c0a6e0d2e24e7fd473b92b93ddb872162608b3ed8089d28881604051600160a060020a03909116815260200160405180910390a18092505b50509695505050505050565b610a7d610da0565b6009600083600160a060020a0316600160a060020a0316815260200190815260200160002080548060200260200160405190810160405280929190818152602001828054801561048d57602002820191906000526020600020908154600160a060020a0316815260019091019060200180831161046f5750505050509050919050565b600060c060405190810160409081528482526020808301889052428284015260016060840152600160a060020a033316608084015260a083018790526000898152600590915220815181908051610b5b929160200190610deb565b506020820151816001015560408201518160020155606082015181600301556080820151600482018054600160a060020a031916600160a060020a039290921691909117905560a0820151600590910155506000828152600660205260409020805460018101610bcb8382610db2565b506000918252602080832091909101889055600160a060020a03331682526004905260409020805460018101610c018382610db2565b50600091825260209091200186905550600195945050505050565b6000806000806000610c2c610da0565b60008781526005602081815260409283902060018082015493820154600280840154600485015460038601548654989994989297600160a060020a03909216969095909485949184161561010002600019019093160491601f8301829004820290910190519081016040528092919081815260200182805460018160011615610100020316600290048015610d025780601f10610cd757610100808354040283529160200191610d02565b820191906000526020600020905b815481529060010190602001808311610ce557829003601f168201915b5050505050905095509550955095509550955091939550919395565b610d26610da0565b6004600083600160a060020a0316600160a060020a0316815260200190815260200160002080548060200260200160405190810160405280929190818152602001828054801561048d5760200282019190600052602060002090815481526001909101906020018083116105625750505050509050919050565b60206040519081016040526000815290565b815481835581811511610dd657600083815260209020610dd6918101908301610e69565b505050565b60405161052e80610e8483390190565b828054600181600116156101000203166002900490600052602060002090601f016020900481019282601f10610e2c57805160ff1916838001178555610e59565b82800160010185558215610e59579182015b82811115610e59578251825591602001919060010190610e3e565b50610e65929150610e69565b5090565b61040991905b80821115610e655760008155600101610e6f560060606040908152600a805461ffff19169055516101408061052e8339810160405280805191906020018051919060200180519190602001805191906020018051919060200180519190602001805191906020018051919060200180519190602001805160008054600160a060020a0319908116600160a060020a039e8f161782556001805482169d8f169d909d17909c5560028054909c169a909c1699909917909955506003959095556004939093556005919091556006556007556008556009555061045c9081906100d290396000f3006060604052600436106100c45763ffffffff7c01000000000000000000000000000000000000000000000000000000006000350416631315198181146100c6578063200d2ed2146100eb578063211a7dc5146100fe57806338c8e6111461011a5780639d76ea581461018f578063a00f198a146101be578063a035b1fe146101c6578063aaa48425146101d9578063acf311e5146101ec578063d5ce3389146101ff578063d5d356f114610212578063f49704f914610225578063ff186b2e14610238575b005b34156100d157600080fd5b6100d961024b565b60405190815260200160405180910390f35b34156100f657600080fd5b6100d9610251565b610106610257565b604051901515815260200160405180910390f35b341561012557600080fd5b61012d6102ca565b604051600160a060020a039a8b168152988a1660208a0152969098166040808901919091526060880195909552608087019390935260a086019190915260c085015260e084015261010083019390935261012082015261014001905180910390f35b341561019a57600080fd5b6101a2610309565b604051600160a060020a03909116815260200160405180910390f35b610106610318565b34156101d157600080fd5b6100d96103f4565b34156101e457600080fd5b6101a26103fa565b34156101f757600080fd5b6100d9610409565b341561020a57600080fd5b6100d961040f565b341561021d57600080fd5b6100d9610415565b341561023057600080fd5b6101a261041b565b341561024357600080fd5b6100d961042a565b60055481565b60075481565b60025460009033600160a060020a0390811691161480156102785750600754155b156102c757600154600954600160a060020a0390911690633b9aca000280156108fc0290604051600060405180830381858888f19350505050156102c35750600160078190556102c7565b5060005b90565b600054600154600254600354600454600554600654600754600854600954600160a060020a03998a169998891698979097169690919293949596979899565b600054600160a060020a031681565b60025460009033600160a060020a0390811691161480156103395750600754155b156103ee5760008054600154600854600160a060020a039283169363a9059cbb9390921691604051602001526040517c010000000000000000000000000000000000000000000000000000000063ffffffff8516028152600160a060020a0390921660048301526024820152604401602060405180830381600087803b15156103c157600080fd5b6102c65a03f115156103d257600080fd5b50505060405180519050156102c35750600160078190556102c7565b50600190565b60085481565b600154600160a060020a031681565b60035481565b60045481565b60065481565b600254600160a060020a031681565b600954815600a165627a7a7230582086f95d7fba87cfee3b8dd6f5bfb103bae9bea54b42da162485fc3050031346300029a165627a7a72305820affb33414954e6b6bbdba2afdeec76001d31496ba15380dee58b776db21f471a0029",
  "source": "pragma solidity ^0.4.18;\n\n\n\n\n\ncontract HouseInfoListing{\n    \n    event orderid(address preOrder);\n     \n    address   public  tokenAddress;//tokenAddress used to pay \n    bytes32[] private districtcode;//district code\n    address   private contractowner;\n    uint      public  preOrderaddressfortest;\n\n   function HouseInfoListing(address _tokenAddress)\n   payable\n   public{\n       tokenAddress   = _tokenAddress;\n       contractowner  = msg.sender; \n   }\n   \n   \n function setDistrictCode(bytes32 _districtcode) \n   public \n   returns(bool success)\n  {\n    if(msg.sender!= contractowner)\n    return false;\n    districtcode.push(_districtcode);\n    return true;\n  }\n   \n   function getDistrictCode() \n   public \n   view\n   returns(bytes32[] _districtcode)\n  {\n    return districtcode;\n  }\n   \n    \n    \n  struct HouseInfo {\n    string  roominfo;\n    uint    price;//PPS price\n    uint    contractdatetime;\n    uint    state;//0 close , 1 open\n    address owner;\n    uint    ethPrice;//Gwei\n  \n  }\n  \n  mapping ( address => bytes32[] ) private hostRoomList;//every house info has one uuid,find house info by host address\n  mapping ( bytes32 => HouseInfo ) private houseInfo;   //describ the house information\n  mapping ( bytes32 => bytes32[] ) private uuids;       //every house info has one uuid,find house info by districtcode\n                                                        //should add find house info by city street \n  //通过房屋信息uuid确定预定合约信息                                                        \n  mapping ( bytes32 => address[] ) private PreOrders;   \n                                                        //find preorders lists by house info uuid \n                                                        //find preOrder or order infomation from this connection \n  //通过房客address找到合约信息\n  mapping (address => address[]) private GuestOrders;   //find guest orders by guest address\n  //通过房东address找到合约信息\n  mapping (address => address[]) private HouseOwnerOrders;//find house owner orders by house owner address\n  \n  //preOrder by PPS\n  function preOrder( address _guestaddress,address _hostaddress, bytes32 _houseinfo, uint _from, uint _to, uint _days)\n  payable\n  public\n  returns (address _contractaddress)\n  {\n        uint transferPrice = _days * houseInfo[_houseinfo].price;\n        PreOrder preorder = new PreOrder( tokenAddress , _hostaddress , _guestaddress , _houseinfo , _from , _to , _days , 0 , transferPrice , 0 );\n        if(Token(tokenAddress).transferFrom(_guestaddress,preorder,transferPrice))//transfer token to contract address\n        {\n            PreOrders[_houseinfo].push(preorder); \n            GuestOrders[_guestaddress].push(preorder);\n            HouseOwnerOrders[_hostaddress].push(preorder);\n            orderid(address(preorder));\n            return address(preorder);\n        }\n        return ;\n  }\n  \n  modifier hasValueToPurchase( bytes32 _houseinfo, uint _days ) {\n    require (msg.value >= ( _days * houseInfo[_houseinfo].ethPrice * 1000000000 ));\n    _;\n  }\n  \n  //\"0xca35b7d915458ef540ade6068dfe2f44e8fa733c\",\"0xca35b7d915458ef540ade6068dfe2f44e8fa733c\",\"0x7465737431000000000000000000000000000000000000000000000000000000\",3,4,1\n  function preOrderByEth( address _guestaddress,address _hostaddress, bytes32 _houseinfo, uint _from, uint _to, uint _days)\n  public\n  payable\n  hasValueToPurchase( _houseinfo,  _days ) \n  returns (address _preorder)\n  {\n    uint transferPrice = _days * houseInfo[_houseinfo].ethPrice;\n    PreOrder preorder = new PreOrder( tokenAddress , _hostaddress , _guestaddress , _houseinfo ,  _from , _to , _days , 0 , 0 , transferPrice );\n    preOrderaddressfortest = msg.value;\n    if(  address(preorder).send(msg.value) )\n    {\n        PreOrders[_houseinfo].push(preorder); \n        GuestOrders[_guestaddress].push(preorder);\n        HouseOwnerOrders[_hostaddress].push(preorder);\n        orderid(address(preorder));\n        return address(preorder);\n    }\n     return;\n  }\n  \n  //\"test1\",999,1000000000,\"roominfo\",\"0x3333322d30303332000000000000000000000000000000000000000000000000\"\n   function setHouseInfo(bytes32 _uuid,uint _price,uint _ethPrice,string _roominfo,bytes32 _districtcode) \n   public \n   returns(bool success)\n  {\n    houseInfo[_uuid] = HouseInfo(\n      {\n        roominfo: _roominfo,\n        price   : _price,\n        ethPrice: _ethPrice,\n        contractdatetime:block.timestamp,\n        owner   : msg.sender,\n        state   : 1\n      });\n              \n    uuids[_districtcode].push(_uuid);\n    hostRoomList[msg.sender].push(_uuid);\n    return true;\n  }\n  \n  function getHostRoomLists(address _hostaddress)\n    view\n    public\n    returns(bytes32[] _hostRoomList)\n  {\n    return hostRoomList[_hostaddress];\n  }\n    \n    \n  function getGuestOrders(address _guestaddress)\n  view\n  public\n  returns (address[] _guestOrders)\n  {\n      return GuestOrders[_guestaddress];\n  }\n  \n  function getHostOrders(address _hostaddress)\n  view\n  public\n  returns (address[] _hostOrders)\n  {\n      return HouseOwnerOrders[_hostaddress];\n  }\n  \n  function getPreorders(bytes32 _houseinfo)\n  view\n  public\n  returns (address[] _preorders)\n  {\n      return PreOrders[_houseinfo];\n  }\n  \n  function getUUIDS(bytes32 _districtcode)\n    view\n    public\n    returns(bytes32[] _uuid)\n  {\n    return uuids[_districtcode];\n  }\n    \n  function getHouseInfo(bytes32 _uuid)\n    view\n    public\n    returns (uint _price,uint _ethPrice, uint _contractdatetime, address _owner,uint _state,string _roominfo)\n  {\n    //check the contract list, the most important thing is that if state is 0, that means this house had been rented.\n    return (\n      houseInfo[_uuid].price,\n      houseInfo[_uuid].ethPrice,\n      houseInfo[_uuid].contractdatetime,\n      houseInfo[_uuid].owner,\n      houseInfo[_uuid].state,\n      houseInfo[_uuid].roominfo\n    );\n  }\n \n}\n\n\n\n\n\n\n\ncontract PreOrder{\n    address public tokenAddress;\n    address public owneraddress;\n    address public guestaddress;\n    bytes32 public houseinfo;\n    uint public from;\n    uint public to;\n    uint public rentDays;\n    uint public status;//0:preorder 1: success  -1: cancel\n    uint public price;\n    uint public ethPrice;\n    \n    function () \n    public \n    payable {\n    }\n    \n\n        \n    function PreOrder (\n                        address _tokenAddress, \n                        address _owneraddress,\n                        address _guestaddress,\n                        bytes32 _houseinfo,\n                        uint _from,\n                        uint _to,\n                        uint _days,\n                        uint _status,\n                        uint _price,\n                        uint _ethPrice\n                    ) \n    public                \n    payable \n    {\n        tokenAddress = _tokenAddress;\n        owneraddress = _owneraddress;\n        guestaddress = _guestaddress;\n        houseinfo    = _houseinfo;\n        from         = _from;\n        to           = _to;\n        rentDays     = _days;\n        status       = _status;\n        price        = _price;\n        ethPrice     = _ethPrice;\n    }\n    \n    function getPreorderInfo()\n    view\n    public\n    returns (\n                address _tokenAddress, \n                address _owneraddress,\n                address _guestaddress,\n                bytes32 _houseinfo,\n                uint _from,\n                uint _to,\n                uint _days,\n                uint _status,\n                uint _price,\n                uint _ethPrice\n            ) \n    {\n    //check the contract list, the most important thing is that if state is 0, that means this house had been rented.\n    return (\n        tokenAddress ,\n        owneraddress ,\n        guestaddress ,\n        houseinfo    ,\n        from         ,\n        to           ,\n        rentDays     ,\n        status       ,\n        price        ,\n        ethPrice\n    );\n    }\n    \n    \n    \n    function confirmOrder()\n    public\n    payable\n    returns(bool success)\n    {\n       if( msg.sender == guestaddress && status == 0)   \n       {\n         if(Token(tokenAddress).transfer(owneraddress,price))//transfer token to contract address\n         {\n            status = 1;\n            return true;\n         }\n         else\n         {\n             //transfer token failure\n             return false;\n         }\n           \n       }\n      //1 transfer token from contract address to guest address\n      //2 if step 1 successfully finished, update info of preOrder contract\n      //3 if step 1 successfully finished, remove order info from PreOrders lists\n      return true;\n   }\n   \n    function confirmOrderByEth()\n    public\n    payable\n    returns(bool success)\n    {\n        if( msg.sender == guestaddress && status == 0)   \n       {\n            if(owneraddress.send(ethPrice* 1000000000))//transfer token to contract address\n         {\n             \n            status = 1;\n            return true;\n         }\n         else\n         {\n             //transfer token failure\n             return false;\n         }\n       }\n    }\n    bool private houseOwnerAgreeToCancel = false;\n    bool private guestAgreeToCancel      = false;\n//     function cancelOrder()\n//     public\n//     returns(bool success)\n//     {\n//       //both of house owner and guest should be agreed to cancel this contract then the Token in this contract can send back\n\n//       //1 transfer token from contract address to guest address\n//       //2 if step 1 successfully finished, update info of preOrder contract\n//       return true;\n//   }\n    \n    \n}\n\n\n\ncontract Token {\n  event Transfer(address indexed from, address indexed to, uint tokens);\n  event Approval(address indexed tokenOwner, address indexed spender, uint tokens);\n  function totalSupply() public constant returns (uint);\n  function balanceOf(address tokenOwner) public constant returns (uint balance);\n  function allowance(address tokenOwner, address spender) public constant returns (uint remaining);\n  function transfer(address to, uint tokens) public returns (bool success);\n  function approve(address spender, uint tokens) public returns (bool success);\n  function transferFrom(address from, address to, uint tokens) public returns (bool success);\n}\n\n",
  "sourcePath": "/Applications/eric/mvp/contracts/RentHouse.sol",
  "compiler": {
    "name": "solc",
    "version": "0.4.19+commit.c4cbbb05.Emscripten.clang"
  },
  "schemaVersion": "2.0.0",
  "updatedAt": "2018-07-10T12:04:22.796Z"
}