{
  "contractName": "Listing",
  "abi": [
    {
      "constant": true,
      "inputs": [],
      "name": "owner_address",
      "outputs": [
        {
          "name": "",
          "type": "address"
        }
      ],
      "payable": false,
      "stateMutability": "view",
      "type": "function"
    },
    {
      "constant": true,
      "inputs": [
        {
          "name": "",
          "type": "uint256"
        }
      ],
      "name": "listings",
      "outputs": [
        {
          "name": "lister",
          "type": "address"
        },
        {
          "name": "ipfsHash",
          "type": "bytes32"
        },
        {
          "name": "price",
          "type": "uint256"
        }
      ],
      "payable": false,
      "stateMutability": "view",
      "type": "function"
    },
    {
      "inputs": [],
      "payable": false,
      "stateMutability": "nonpayable",
      "type": "constructor"
    },
    {
      "anonymous": false,
      "inputs": [
        {
          "indexed": false,
          "name": "_from",
          "type": "address"
        }
      ],
      "name": "UpdateListings",
      "type": "event"
    },
    {
      "anonymous": false,
      "inputs": [
        {
          "indexed": false,
          "name": "_index",
          "type": "uint256"
        }
      ],
      "name": "NewListing",
      "type": "event"
    },
    {
      "anonymous": false,
      "inputs": [
        {
          "indexed": false,
          "name": "_index",
          "type": "uint256"
        },
        {
          "indexed": false,
          "name": "_unitsToBuy",
          "type": "uint256"
        },
        {
          "indexed": false,
          "name": "_value",
          "type": "uint256"
        }
      ],
      "name": "ListingPurchased",
      "type": "event"
    },
    {
      "constant": false,
      "inputs": [],
      "name": "testingAddSampleListings",
      "outputs": [],
      "payable": false,
      "stateMutability": "nonpayable",
      "type": "function"
    },
    {
      "constant": true,
      "inputs": [],
      "name": "listingsLength",
      "outputs": [
        {
          "name": "",
          "type": "uint256"
        }
      ],
      "payable": false,
      "stateMutability": "view",
      "type": "function"
    },
    {
      "constant": true,
      "inputs": [
        {
          "name": "_index",
          "type": "uint256"
        }
      ],
      "name": "getListing",
      "outputs": [
        {
          "name": "",
          "type": "uint256"
        },
        {
          "name": "",
          "type": "address"
        },
        {
          "name": "",
          "type": "bytes32"
        },
        {
          "name": "",
          "type": "uint256"
        }
      ],
      "payable": false,
      "stateMutability": "view",
      "type": "function"
    },
    {
      "constant": false,
      "inputs": [
        {
          "name": "_ipfsHash",
          "type": "bytes32"
        },
        {
          "name": "_price",
          "type": "uint256"
        }
      ],
      "name": "create",
      "outputs": [
        {
          "name": "",
          "type": "uint256"
        }
      ],
      "payable": false,
      "stateMutability": "nonpayable",
      "type": "function"
    },
    {
      "constant": false,
      "inputs": [
        {
          "name": "_index",
          "type": "uint256"
        },
        {
          "name": "_unitsToBuy",
          "type": "uint256"
        }
      ],
      "name": "buyListing",
      "outputs": [],
      "payable": true,
      "stateMutability": "payable",
      "type": "function"
    }
  ],
  "bytecode": "0x6060604052341561000f57600080fd5b60008054600160a060020a03191633600160a060020a031617905561003f640100000000610044810261042f1704565b610242565b60005433600160a060020a0390811691161461005f57600080fd5b6100987f85b54209824fdf81de18438bc09e33ea5e22aaf84dc67fb81eb9579a66b101f161035264010000000061031f6100d582021704565b506100d27f2caacb4b4bca5ee5b8bc997fba5e342df4c7f1f04622b27e124017a9047594d36103e864010000000061031f6100d582021704565b50565b6000600180548060010182816100eb91906101d8565b9160005260206000209060030201600060606040519081016040908152600160a060020a033316825260208201889052810186905291905081518154600160a060020a031916600160a060020a039190911617815560208201516001820155604082015181600201555050507f03531c5c818e79a3e5eeacb3ac38d4caf6a195f3237c8d61efe0a72385a3b8d833604051600160a060020a03909116815260200160405180910390a16001547fd8562534ed9a3ce564a595a66dbcc871a37cff70205ea8bc8d0276dcaa4d1009906000190160405190815260200160405180910390a15060015492915050565b815481835581811511610204576003028160030283600052602060002091820191016102049190610209565b505050565b61023f91905b8082111561023b578054600160a060020a0319168155600060018201819055600282015560030161020f565b5090565b90565b610581806102516000396000f3006060604052600436106100825763ffffffff7c0100000000000000000000000000000000000000000000000000000000600035041663107a274a81146100875780636d0ba1d3146100d15780637afd81f5146100e157806380edef8e14610106578063a042c13214610135578063c72c59d61461014e578063de74e57b14610161575b600080fd5b341561009257600080fd5b61009d6004356101a5565b604051938452600160a060020a03909216602084015260408084019190915260608301919091526080909101905180910390f35b6100df600435602435610228565b005b34156100ec57600080fd5b6100f4610309565b60405190815260200160405180910390f35b341561011157600080fd5b610119610310565b604051600160a060020a03909116815260200160405180910390f35b341561014057600080fd5b6100f460043560243561031f565b341561015957600080fd5b6100df61042f565b341561016c57600080fd5b6101776004356104a6565b604051600160a060020a03909316835260208301919091526040808301919091526060909101905180910390f35b600080600080846001868154811015156101bb57fe5b600091825260209091206003909102015460018054600160a060020a0390921691889081106101e657fe5b90600052602060002090600302016001015460018881548110151561020757fe5b90600052602060002090600302016002015493509350935093509193509193565b6001548290811061023857600080fd5b82828060018381548110151561024a57fe5b90600052602060002090600302016002015402341015151561026b57600080fd5b600180548690811061027957fe5b6000918252602090912060039091020154600160a060020a03163480156108fc0290604051600060405180830381858888f1935050505015156102bb57600080fd5b7febc52b25c0108d30cc8822c3d55c316fe0dbcd325738f0a17a673c04acf5e36f85853460405180848152602001838152602001828152602001935050505060405180910390a15050505050565b6001545b90565b600054600160a060020a031681565b60006001805480600101828161033591906104e1565b9160005260206000209060030201600060606040519081016040908152600160a060020a03331682526020820188905281018690529190508151815473ffffffffffffffffffffffffffffffffffffffff1916600160a060020a039190911617815560208201516001820155604082015181600201555050507f03531c5c818e79a3e5eeacb3ac38d4caf6a195f3237c8d61efe0a72385a3b8d833604051600160a060020a03909116815260200160405180910390a16001547fd8562534ed9a3ce564a595a66dbcc871a37cff70205ea8bc8d0276dcaa4d1009906000190160405190815260200160405180910390a15060015492915050565b60005433600160a060020a0390811691161461044a57600080fd5b6104767f85b54209824fdf81de18438bc09e33ea5e22aaf84dc67fb81eb9579a66b101f161035261031f565b506104a37f2caacb4b4bca5ee5b8bc997fba5e342df4c7f1f04622b27e124017a9047594d36103e861031f565b50565b60018054829081106104b457fe5b6000918252602090912060039091020180546001820154600290920154600160a060020a03909116925083565b81548183558181151161050d5760030281600302836000526020600020918201910161050d9190610512565b505050565b61030d91905b8082111561055157805473ffffffffffffffffffffffffffffffffffffffff191681556000600182018190556002820155600301610518565b50905600a165627a7a7230582055068aed710cf47b70ace1c506cc45f6dd4047095216007dd155dec3a8123f710029",
  "source": "pragma solidity ^0.4.18;\n\n/// @title Listing\n/// @dev Used to keep marketplace of listings for landlords and tenants\n/// @author Fei Yang <fyang1024@gmail.com>, Matt Liu <matt@originprotocol.com>, Josh Fraser <josh@originprotocol.com>, Stan James <stan@originprotocol.com>\n\ncontract Listing {\n\n  /*\n   * Events\n   */\n\n  // Event denoting that a given address has updated its array of listings\n  // Currently, this means creating or deleting listings\n  // In the future, we will have separate events for specific actions\n  event UpdateListings(address _from);\n  event NewListing(uint _index);\n  event ListingPurchased(uint _index, uint _unitsToBuy, uint _value);\n\n  /*\n   * Storage\n   */\n\n  // Contract owner\n  address public owner_address;\n\n  // Array of all listings\n  listingStruct[] public listings;\n\n\n  /*\n   * Structs\n   */\n\n  struct listingStruct {\n    address lister;\n    // Assume IPFS defaults for hash: function:0x12=sha2, size:0x20=256 bits\n    // See: https://ethereum.stackexchange.com/a/17112/20332\n    // This assumption may have to change in future, but saves space now\n    bytes32 ipfsHash;\n    uint price;\n  }\n\n\n  /*\n   * Modifiers\n   */\n  modifier isValidListingIndex(uint _index) {\n    require (_index < listings.length);\n    _;\n  }\n\n  modifier hasValueToPurchase(uint _index, uint _unitsToBuy) {\n    require (msg.value >= (listings[_index].price * _unitsToBuy));\n    _;\n  }\n\n  modifier isOwner() {\n    require (msg.sender == owner_address);\n    _;\n  }\n\n\n  /*\n   * Public functions\n   */\n\n  function Listing()\n    public\n  {\n    // Defines origin admin address - may be removed for public deployment\n    owner_address = msg.sender;\n\n    // Sample Listings - May be removed for public deployment\n    testingAddSampleListings();\n  }\n\n  function testingAddSampleListings()\n    public\n    isOwner\n  {\n    // We get stripped hex value from IPFS hash using getBytes32FromIpfsHash()\n    // in contract-service.js\n\n    // Zinc house - Hash: QmXLbEoZjiVuBKktdo4LoYbM5bt2uygyt5xKBVZNzAwDVA\n    create(\n      0x85b54209824fdf81de18438bc09e33ea5e22aaf84dc67fb81eb9579a66b101f1,\n      850\n    );\n\n    // Mamalahoa Estate - Hash: QmRM1hX7S2TjogwXWQn5k25ucFB25HfPMmH42JVz73yvVg\n    create(\n      0x2caacb4b4bca5ee5b8bc997fba5e342df4c7f1f04622b27e124017a9047594d3,\n      1000\n    );\n  }\n\n  /// @dev listingsLength(): Return number of listings\n  function listingsLength()\n    public\n    constant\n    returns (uint)\n  {\n      return listings.length;\n  }\n\n  /// @dev getListing(): Return listing info for given listing\n  /// @param _index the index of the listing we want info about\n  function getListing(uint _index)\n    public\n    constant\n    returns (uint, address, bytes32, uint)\n  {\n    // TODO (Stan): Determine if less gas to do one array lookup into var, and\n    // return var struct parts\n    return (\n      _index,\n      listings[_index].lister,\n      listings[_index].ipfsHash,\n      listings[_index].price\n    );\n  }\n\n  /// @dev create(): Create a new listing\n  /// @param _ipfsHash Hash of data on ipfsHash\n  /// @param _price Price of unit. Currently ETH, will change to 0T\n  function create(\n    bytes32 _ipfsHash,\n    uint _price\n  )\n    public\n    returns (uint)\n  {\n    listings.push(listingStruct(msg.sender, _ipfsHash, _price));\n    UpdateListings(msg.sender);\n    NewListing(listings.length-1);\n    return listings.length;\n  }\n\n\n  /// @dev buyListing(): Buy a listing\n  /// @param _index Index of listing to buy\n  /// @param _unitsToBuy Number of units to buy\n  function buyListing(uint _index, uint _unitsToBuy)\n    public\n    payable\n    isValidListingIndex(_index)\n    hasValueToPurchase(_index, _unitsToBuy)\n  {\n    // Send funds to lister\n    // TODO: In future there will likely be some sort of escrow\n    listings[_index].lister.transfer(msg.value);\n\n    ListingPurchased(_index, _unitsToBuy, msg.value);\n  }\n\n}\n",
  "sourcePath": "/Applications/eric/mvp/contracts/Listing.sol",
  "compiler": {
    "name": "solc",
    "version": "0.4.19+commit.c4cbbb05.Emscripten.clang"
  },
  "schemaVersion": "2.0.0",
  "updatedAt": "2018-07-10T12:04:23.533Z"
}